:020000040800F2
:10000000A8B90020D50200082DA50008117B000822
:1000100029A50008DD1D0008651A01080000000080
:10002000000000000000000000000000910801082E
:10003000013100080000000071AC00080909010846
:10004000EF020008EF020008EF020008EF020008CC
:10005000EF020008EF02000805310008EF02000877
:10006000EF020008113100081D310008EF020008FE
:10007000791E0008EF020008EF020008EF020008F6
:10008000EF020008EF020008EF020008EF0200088C
:10009000E11D0008EF020008EF0200082931000806
:1000A000EF020008EF020008EF020008EF0200086C
:1000B0004D0A0108EF020008EF020008EF020008F5
:1000C000EF020008EF020008EF020008EF0200084C
:1000D000EF02000875160108EF020008E11601089A
:1000E000EF020008EF020008EF020008EF0200082C
:1000F000EF020008EF020008EF020008EF0200081C
:10010000EF020008EF020008EF020008EF0200080B
:10011000EF020008EF020008EF020008EF020008FB
:10012000EF020008EF020008891E0008EF02000835
:10013000EF020008EF020008EF020008EF020008DB
:10014000F11D0008EF020008EF020008EF020008AE
:10015000EF020008EF020008EF020008751801081E
:10016000EF020008EF020008EF020008EF020008AB
:10017000EF020008EF020008EF0200080000000094
:10018000EF020008EF02000800F002F800F092F819
:100190000AA090E8000C82448344AAF10107DA45E2
:1001A00001D100F087F8AFF2090EBAE80F0013F0A2
:1001B000010F18BFFB1A43F0010318476CE7010059
:1001C0008CE70100103A24BF78C878C1FAD85207EA
:1001D00024BF30C830C144BF04680C6070470000C1
:1001E0000023002400250026103A28BF78C1FBD840
:1001F000520728BF30C148BF0B6070476E2900F01E
:10020000AD82702900F0EF8366291DF064856529B1
:100210001DF0618567291DF05E8561291DF05D85F2
:1002200003681B0A28BF41F08001692900F05A8247
:10023000642900F05782752900F054826F2900F07C
:100240007D83782900F0BB83E92900F01783E42936
:1002500000F01483F52900F01183EF2900F07A8370
:10026000F82900F0BA830368DB0928BF41F0800158
:10027000632901F0BF80732901F0C480E32901F0F4
:10028000CF80F32901F0D480002070471FB51DF006
:1002900010FD01F027F90400002000211CF0AAFD48
:1002A000401C6060002000211CF08EFDE0601FBD3E
:1002B00010B510BD01F0E8F81146FFF7E7FF15F0A3
:1002C000D5FD01F0C5F903B4FFF7F2FF03BC01F05F
:1002D00009FA00000948804709480047FEE7FEE7A1
:1002E000FEE7FEE7FEE7FEE7FEE7FEE7FEE7FEE7E6
:1002F00004480549054A064B70470000DD0901081E
:1003000089010008A8790020A8B90020A899002038
:10031000A899002053EA020C00F069802DE9F04B07
:100320004FF00006002B1FBFB3FA83F503FA05F464
:1003300024FA05F65E4012BF1643B2FA82F502FABD
:1003400005F4C5F120051EBF22FA05FC44EA0C04A1
:10035000203556EA044C4FEA144418BF641C4FF091
:1003600000084FF00009904271EB030C39D30029CB
:1003700019BFB1FA81F701FA07F6B0FA80F700FA6F
:1003800007F6C7F120071EBF20FA07FC46EA0C0655
:100390002037B6FBF4FCA7EB0507103F07F01F0B57
:1003A000CBF120062CFA06F60CFA0BFB44BFB34641
:1003B0000026202FA4BF5E464FF0000B5BEA060C20
:1003C00008BF4FF0010B19EB0B0948EB0608ABFB1C
:1003D000027C06FB02CC0BFB03CCC01B71EB0C01B7
:1003E000C1E70B46024641464846BDE8F08B13B5CF
:1003F000084318BF4FF0FF300146AFF30080BDE85F
:100400001C4070470FB41CB5084B06AA7B446946D4
:100410000090059800F0BBF904460020694600F002
:10042000C9F920461CBC5DF814FB0000A5030000C0
:100430001CB50C46064B7B4469460090204600F0F4
:10044000A6F904460020694600F0B4F920461CBD18
:100450007B03000030B505460B462A4613F8014BD6
:1004600012F8010B08B1A042F8D01CB1002802D04C
:100470006D1CF1E7284630BD10B5431C02E010F8B2
:10048000011B71B18107FAD14FF0013202C88C1AF9
:100490008C4314EAC211F9D0C01A0A0603D0C01E58
:1004A00010BDC01A10BD0A0401D0801E10BD090283
:1004B000FCD0401E10BD032A40F2308010F0030C27
:1004C00000F0158011F8013BBCF1020F624498BFA7
:1004D00011F801CB00F8013B38BF11F8013BA2F144
:1004E000040298BF00F801CB38BF00F8013B11F0BF
:1004F000030300F02580083AC0F0088051F8043B5F
:10050000083A51F804CBA0E80810F5E7121D5CBFCB
:1005100051F8043B40F8043BAFF30080D20724BFFE
:1005200011F8013B11F801CB48BF11F8012B24BF92
:1005300000F8013B00F801CB48BF00F8012B7047E1
:1005400010B5203AC0F00B80B1E81850A0E8185060
:10055000B1E81850A0E81850203ABFF4F5AF5FEAB0
:10056000027C24BFB1E81850A0E8185044BF18C955
:1005700018C0BDE810405FEA827C24BF51F8043BFC
:1005800040F8043B08BF7047D20728BF31F8023B50
:1005900048BF11F8012B28BF20F8023B48BF00F8E4
:1005A000012B704702F0FF0343EA032242EA0242B2
:1005B00000F002B84FF0000200B51346944696468C
:1005C000203922BFA0E80C50A0E80C50B1F1200166
:1005D000BFF4F7AF090728BFA0E80C5048BF0CC014
:1005E0005DF804EB890028BF40F8042B08BF704772
:1005F00048BF20F8022B11F0804F18BF00F8012BE4
:10060000704770477047704710B500F0BBFA00683C
:1006100010BD10B5044600F0B5FA046010BD70B509
:10062000044685690068C10601D5302600E0202611
:10063000C00707D070BDD4E9012130469047206A39
:10064000401C20626D1EF6D570BD70B504468569EC
:100650000078C00707D170BDD4E901212020904760
:10066000206A401C20626D1EF6D570BD09684A05DF
:1006700001D540B27047C905FCD500B27047096882
:100680004A0501D5C0B27047C905FCD580B2704794
:1006900070B50C460546012A05D02878800600D59D
:1006A000EA69002302E0012305E05B1C934202D2C9
:1006B000E05C0028F9D1A869E618C01AA861286A88
:1006C000184428622846FFF7AAFF04E0D5E9012173
:1006D00014F8010B9047B442F8D32846FFF7B5FF52
:1006E00070BD00002DE9F041064600241068752910
:1006F000314616A510D0FFF7B9FF002802DA4042B4
:1007000013A507E031688A0701D512A502E0490761
:1007100004D511A5012401E0FFF7B1FF00210A2251
:1007200006F1240709E0B0FBF2FCB0FBF2F302FB98
:100730001C00303078541846491C0028F3D1234659
:100740002A463046BDE8F04100F065BA00000000DE
:100750002D0000002B00000020000000116802683E
:10076000006A530501D508700AE0D30501D5088059
:1007700006E0130603D5C217C1E9000200E00860D5
:100780000120704701694A1C02610878704700B572
:100790008FB0CDE901310021059105497944CDE9BA
:1007A00003101146684600F029F90FB000BD0000A3
:1007B000E5FFFFFF0A6802F8010B0A6070470000BE
:1007C0002DE9FF5F15468A460446DFF8AC80F84401
:1007D0000027D8E900103E46CDE9001010E03AF8B5
:1007E00016106A4602A800F027FE411C07D02178A7
:1007F000890603D5E269391891420DD80744761C61
:100800002078800602D5E069B84205DDAE42E6DB1D
:100810003AF816000028E2D1A069C01BA06120466A
:10082000FFF7FDFED8E90010CDE90010002017E029
:100830003AF818106A4602A800F0FEFDB0F1FF3F3A
:1008400081460BD000250DF1080B05E0D4E901210C
:100850001BF8050090476D1C4D45F7D308F10100CA
:10086000B0428046E4DB206A384420622046FFF72D
:10087000ECFEBDE8FF9F00000ED501002DE9F04120
:100880008046D21D22F007020025D2E90002F52998
:1008900015A614D0011E72F1000106DA0023D0EB78
:1008A000030063EB020211A608E0D8F800108B07E2
:1008B00001D50FA602E0490701D50EA60125114674
:1008C000002408F1240704E000F060F930323A55C2
:1008D000641C50EA0102F7D12B46324621464046BD
:1008E000BDE8F04100F097B9000000002D000000C5
:1008F0002B0000002000000030B4002100F124048F
:1009000008E002F00705D208303542EA4372DB08FE
:100910006554491C52EA0305F3D10468002310A270
:10092000250708D504F020040C4304D0C469012332
:100930000CA2641EC46130BC00F06DB910B5044651
:1009400021461068FFF79BFE02462046BDE8104096
:100950000023D1E7D21D22F00701D1E90023CBE724
:100960000000000030000000F0B40D4601880905C9
:1009700002D5214C7C4402E01F4C7C440E34002103
:1009800000F1240608E002F00F071209E75D42EAD1
:1009900003721B097754491C52EA0307F3D102780A
:1009A0000023120704D5702D06D009B1022311349B
:1009B0002246F0BC00F02FB901231034F8E770B5DF
:1009C00004460D4621461068FFF759FE02462946A7
:1009D0002046BDE870400023C6E7D21D22F0070381
:1009E000D3E90023C0E70368126843F020030360E3
:1009F0000823C3610023B7E770D301002DE9F05F3E
:100A0000894604464FF0000ADFF874B1FB44C0F891
:100A100020A02046E1688847002874D0252806D009
:100A2000D4E901219047206A401C2062F1E70026AA
:100A30005F462046E16888472028054607DB312DC0
:100A400005D2781910F8200C08B10643F1E7B00779
:100A500001D526F00406C4F81CA00027C4F818A08D
:100A60002A2D09D028461CF07DF938B304EB8708FD
:100A7000303DC8F8185019E059F8041B204604EB23
:100A800087029161E1688847012F054618D1E06926
:100A9000002820DA26F020061DE0D8F8180000EB28
:100AA000800005EB40003038C8F818002046E168A7
:100AB000884705461CF056F90028EED1012F0AD0D0
:100AC0002E2D08D12046E16888477F1C0546022F5D
:100AD00046F02006C4DBA069002803DA404246F055
:100AE0000106A061F00701D026F010066C2D0BD096
:100AF000682D09D04C2D39D06A2D35D0742D35D0C4
:100B00007A2D33D016E038E0E1682F46204688473A
:100B1000B842054609D16C2F26D04FF48060E168B9
:100B2000064320468847054604E06C2F1AD04FF450
:100B3000807006430DB3A5F14100192802D8203575
:100B400046F400664A462946204626604E46FFF790
:100B500055FB80B101280BD0F61D26F0070000F1EF
:100B6000080956E74020E4E78020D8E70020D6E7D0
:100B700006F104094DE7284652E7206ABDE8F09FD8
:100B800000D3010000487047B000002030B5B0F13C
:100B90000A0271F100034FEA900E4EEA817EB0EB3B
:100BA0000E0061EB91014FEA101E4EEA017E10EB40
:100BB0000E0041EB11114FEA102E4EEA016E10EBC0
:100BC0000E0041EB11214FEA104E4EEA014E10EBA0
:100BD0000E0041EB1141401841F100014FEAD000F5
:100BE00040EA41704FEAD1014FEA810444EA90742F
:100BF00010EB800544EB01046D1944EB0404521B17
:100C0000A3414FF0000348BF0A3200D530BD401C5D
:100C100041F1000130BD2DE9F0470D46994692465D
:100C2000044600F124080168880604D5E06921F033
:100C30001001216000E00120A84201DD471B00E017
:100C40000027A1697A1902EB0900081AA06120782F
:100C5000C00602D42046FFF7E2FC002608E0D4E9F3
:100C600001211AF806009047206A401C761C206279
:100C70004E45F4DB2078C0060AD52046FFF7CFFCAE
:100C800006E0D4E9012130209047206A401C206210
:100C9000381EA7F10107F4DC07E0D4E9012118F8B8
:100CA00005009047206A401C2062281EA5F101051E
:100CB000F3DC2046FFF7C9FC2078000602D50220AD
:100CC000BDE8F0870120FBE72DE9FF4F0C461E46EB
:100CD0004FF0FF378BB0D2E90001DDF860800A9059
:100CE0008A46C1F30A5505B93D46002108464FF032
:100CF0000000BAF1000F00F4400005DA00EB8000BC
:100D00004FF4400101EA50004FEA9059B9F1010F48
:100D100000DDB9460A9850EA4A000ED044F6105059
:100D2000A5F2FF3545432F14B8F1000F1ED07542D0
:100D3000291E1EDDC9F100021CE0B8F1010F4FF0C1
:100D4000000001D0302103E0F24305E02154401CB3
:100D5000B042FBDB30460022002121540B99C1F840
:100D60000880C1E900200FB0BDE8F08FBD1B6D1CED
:100D7000DEE74A4600DA694206A800F0F7FB06AB58
:100D800093E8070003AB83E8070050460A991AF07E
:100D900067FC8DE80700A0F500501F38009003980D
:100DA000002D0ADD42F21F014A460844002303A930
:100DB000039068461AF0D0FE09E0A0F500504A46BC
:100DC0001F38002303A9039068461AF0DAFE8DE865
:100DD00007000004000C03D04FF0FF30410800E092
:100DE0001046B8F1000F03D00022009215461EE015
:100DF000751E05D4FFF7CAFE303262556D1EF9D557
:100E0000B3460122084302D000227F1C04E0207870
:100E1000302801D100227F1E002A099784D01DE0CE
:100E2000112D07DAFFF7B2FE303262556D1C50EA21
:100E30000102F5D1084302D00098C8B10EE00021AC
:100E4000681E05E0235C625C63542254401E491C0A
:100E50008142F7DBAB46A81B401E0990002004F836
:100E60000B000B98099AC0F80880C0E9002B7AE7BC
:100E700011264FF0000857E72DE9F04F8846044649
:100E8000D21D22F0070191B0D1E90001CDE90A019C
:100E90001AF0AEFF02460B98C00F01D02D2007E0DC
:100EA0002068810701D52B2002E0202101EAC00043
:100EB000032A099001D0072A05DB03464146204654
:100EC00000F014FB0BE12078800601D5E06900E01A
:100ED0000620B8F1650F814606D0B8F1660F18D02C
:100EE000B8F1670F70D131E00020B9F1110F009017
:100EF00001DB112301E009F101030AAA01A90CA8F1
:100F0000FFF7E2FEDDE90C70002609F101058346DA
:100F100047E001204B4600904FF000470AAA01A984
:100F20000CA8FFF7D1FEDDE90DB00C995D46002657
:100F300010B909F101000D18B9EB050003D4C0F197
:100F4000FF3609F10105A5EB09002BE0B9F1010F0E
:100F500001DA4FF001090020B9F1110F0090484665
:100F600001DD112300E003460AAA01A90CA8FFF73E
:100F7000ABFEDDE90C704D46002683462078000765
:100F80000AD4AB4500DA5D4601A8012D04DD411904
:100F900011F8011C302907D04F4502DA17F1040F70
:100FA00004DA012082460FE06D1EEEE7002F02DC1E
:100FB000ED1B3E4403E0781CA84200DD7D1CB81BFD
:100FC00000F1010A4FF000472078000703D4AA453A
:100FD00001DB4FF0FF3A0021B7F1004F0DF143085C
:100FE0008DF8431024D002202B23002F01DA7F42FA
:100FF0002D230A21021EA0F1010000DC5FB197FB46
:10100000F1FC97FBF1F201FB1C7C17460CF1300C54
:1010100008F801CDEEE7A8F1010003702188090569
:1010200001D5452100E06521A0F1010800F8011C6F
:1010300009980FA9A1EB0807FF1D00B10120411974
:1010400001EBEA70A1693844081A401EA0612078BB
:10105000C00602D42046FFF7E2FA099828B1D4E985
:1010600001219047206A401C20622078C00622D5CA
:101070002046FFF7D4FA1EE0002E04DBB34502DD64
:1010800001A8805D00E03020D4E901219047206A6A
:10109000401C2062761CAAF101005FEA000A0AD116
:1010A00000F020FAC0680168405CD4E90121904753
:1010B000206A401C2062281EA5F10105DCDC07E047
:1010C000D4E9012118F8010B9047206A401C2062E6
:1010D000381EA7F10107F3DC2046FFF7B6FA03201C
:1010E00011B041E62DE9F04F04460D46D21D22F025
:1010F000070089B0D0E90097484639461AF078FED3
:101100000246F80F01D02D2307E02068810701D5A2
:101110002B2302E0202101EAC0038DF820300BB11F
:10112000012000E00020032A824601D0072A04DBC8
:101130002946204600F0DAF93FE12078800601D404
:101140000D2500E0E569C7F30A560D2D49DA0021A7
:101150004FEA175B08464FF00000002F00F44000F4
:1011600007DA00EB80004FF4400100EBD07001EA99
:1011700060008115012901DD4FF0FF3100224FEAA7
:10118000850CBCF1180F06D31346ACF118004FF0D4
:101190008052C24003E04FF4801323FA0CF30CF1A9
:1011A0000C0CBCF1200F04D3ACF1200C09FA0CF0AC
:1011B00001E007FA0CF000294FF0004801DD18B9F2
:1011C0000FE00ED140450CD319EB02095F4121B964
:1011D000404502D19F4329EA0209BBEB175F00D0CB
:1011E000761C2088000502D57B48784402E07A48C6
:1011F0007844193808AA302302F80A30037C0AF12F
:101200000101002E0AF1020A53546A4602DC4FF033
:10121000300101E04FF031014FF001088DF800106E
:1012200002D0A6F2FF3603E059EA470100D06B4E28
:10123000002D02DC2178090704D54FF002082E2189
:101240008DF80110C44600210BE0C7F303433F01B2
:10125000C35C491C6D1E02F80830052908F101081D
:1012600001DA002DF1DC00210CE000EB1973491CC0
:101270001B786D1E082902F808304FEA091908F199
:10128000010801DA002DF0DC21688B0602D516E09A
:10129000A8F10108E04505DD02EB080313F8013C65
:1012A000302BF5D0B8F1000F09DD02EB080313F87D
:1012B000013C2E2B03D1090701D4A8F10108002D10
:1012C00005DD3E2102F808106D1E08F10108407C82
:1012D000002E02F8080008F1010804DA2D207642F9
:1012E00002F8080002E02B2002F808000A214FF45F
:1012F0007A70864208F101080BDB96FBF0F330337D
:1013000002F8083096FBF0F308F1010800FB1366C1
:1013100001E0642E0CDB642096FBF0F3303302F81E
:10132000083096FBF0F308F1010800FB136601E0BA
:101330000A2E06DB96FBF1F0303002F8080008F1C7
:10134000010896FBF1F001FB1060303002F8080054
:10135000A16908F1010808EB050202EB0A00081A6E
:10136000A0612078C00602D42046FFF758F9216A10
:1013700008AE01EB0A00206204E0D4E9012116F86E
:10138000010B9047BAF1010AF7D22078C00602D5C6
:101390002046FFF744F96E4609E016F8010B3E2897
:1013A0000FD0D4E901219047206A401C2062B8F197
:1013B0000108F2D22046FFF748F909B00320BDE842
:1013C000F08F206A2844206203E0D4E90121302014
:1013D00090476D1EEBD3F8E775CC010002FCFFFFD0
:1013E00010B5436913B1AFF3008001E0FFF750F986
:1013F000012010BD127800F124010A7000224A7009
:101400000122EDE711684FF0FF32E9E710B54369BB
:1014100013B1AFF3008001E0FFF7D2F9012010BD56
:10142000128800F1240182840022C2840122EDE7A7
:1014300011684FF0FF32E9E72DE9F04116460C46FE
:10144000054600F047F8036893F80101012807D02A
:10145000FF2C12D8185D80B101202C70BDE8F081FE
:10146000D3F807013246214603F20713C71828466E
:10147000BC46BDE8F041002360474FF0FF30EDE788
:1014800000487047B00000207546FFF7F9FFAE46F0
:1014900005006946534620F00700854618B020B580
:1014A000FEF726FFBDE820404FF000064FF0000792
:1014B0004FF000084FF0000BAC46ACE8C009ACE8B8
:1014C000C009ACE8C009ACE8C00921F007018D46AD
:1014D0007047000010B500F005F8001D10BD00BFFA
:1014E00015B9010000487047D00000202DE9F041F7
:1014F0001F46044603260168072A01F4006004DB46
:1015000008B116A505E016A503E008B115A500E091
:1015100015A521F010002060A069C01EA0610FB1C8
:10152000401EA0612046FFF77AF84FB1D4E90121AF
:1015300038469047206A401C2062C01C206206E0AA
:10154000206AFAE7D4E9012115F8010B9047761ECD
:10155000F8D22046FFF779F8BDE8F0814E414E0001
:101560006E616E00494E4600696E66002DE9F047D7
:10157000814616468AB0354878440DC88DE80D007E
:1015800032487844801C03AC0DC884E80D0041F655
:101590009B300844372190FBF1F290FBF1F5A5F167
:1015A000800501FB12041B3C02D56442012000E0CF
:1015B0000020DFF898A080460027FA44AAF1BE0A6E
:1015C0000EE0E0070AD03246684607EB47010123E8
:1015D0000AEB81011AF0D5FA8DE8070064107F1C30
:1015E000002CEED1194F7F44AE3F19E0E80715D02B
:1015F00007EB04100DF1180A90E80E008AE80E00BF
:10160000C068F04201D1981908903246012306A91A
:1016100003A81AF0B6FA03AB83E807006D10641C48
:10162000002DE3D14FF0010332466946B8F1000FB7
:1016300003A802D01AF090FA01E01AF0A2FAC9E960
:101640000001C9F808200AB0BDE8F08778C9010098
:1016500010B50446AFF300802046BDE81040FEF709
:1016600032BE00000000000030B44FF0013C50F8E2
:10167000042B51F8043BCCFA52F4D51A20D1FCB912
:1016800050F8042B51F8043BCCFA52F4D51A17D178
:10169000B4B950F8042B51F8043BCCFA52F4D51AE3
:1016A0000ED16CB950F8042B51F8043BCCFA52F42B
:1016B000D51A05D1002CDAD030BC4FF000007047AD
:1016C00029BAB1FA81F111F01801D1F1200084405A
:1016D000F2D1CA40CB4012F0FF0213F0FF0330BC3E
:1016E000D01A704701491820ABBEFEE72600020061
:1016F0007047000083B002900191009202994FF070
:101700007E50086002990020486002998860029922
:10171000C86003B07047000080B586B005908DEDBD
:10172000040A0391029201930598039991ED000A2E
:10173000D1ED010A91ED021A0299D1ED001A91ED55
:10174000012AD1ED022A019991ED003AD1ED013A39
:1017500091ED024A07F0A2FF06B080BD80B584B0CB
:1017600040F66010C2F200000068006800F0080156
:101770000020B0EBD10F18D0FFE7FFE70020029068
:1017800040F66010C2F2000001680968029100682A
:10179000406802900298FFE740F66010C2F2000035
:1017A0000168096800684068FFE740F66010C2F20F
:1017B00000000068006800F020010020B0EB511F1D
:1017C00049D0FFE740F66010C2F200000DF10F01B2
:1017D00001224FF0FF3305F07BFE40F22050C2F2B1
:1017E0000000B0F880006FF3DF307E2816DCFFE7E2
:1017F0009DF80F0040F22051C2F20001B1F88020A4
:101800006FF3DF328854B1F88000421C6FF3DF328F
:1018100000F400401044A1F880001BE040F2205189
:10182000C2F20001B1F8800000F40040A1F880008D
:101830009DF80F00B1F880206FF3DF328854B1F8C3
:101840008000421C6FF3DF3200F400401044A1F826
:101850008000FFE7FFE740F66010C2F2000000687A
:10186000006800F010010020B0EB111F1AD0FFE754
:1018700040F22051C2F20001B1F8800040F4004073
:10188000A1F88000FFE70020019040F66010C2F24E
:1018900000000168096801910068406801900198A2
:1018A000FFE7FFE7FFE79DF803007F2813DCFFE772
:1018B0009DF8032040F22050C2F20000805C41F20B
:1018C000C201C2F200018854FFE79DF80300013015
:1018D0008DF80300E7E704B080BD000080B500206C
:1018E000C4F202001021012203F0D2F980BD0000F1
:1018F00080B50020C4F202001021002203F0C8F9D4
:1019000080BD00007047000080B540F20040C4F286
:1019100002000122114603F0BBF980BD80B540F200
:101920000040C4F202000121002203F0B1F980BDA1
:1019300085B004900391029204990878497840EAAE
:101940000120ADF80600BDF9060000EE100AB8EE61
:10195000C00A40F20800C2F2000090ED001A20EE2A
:10196000010A039981ED000A049A9178D27841EA3C
:101970000221ADF80610BDF9061000EE101AB8EEFF
:10198000C00A90ED001A20EE010A039981ED010AC8
:10199000049A1179527941EA0221ADF80610BDF995
:1019A000061000EE101AB8EEC00A90ED001A20EEF4
:1019B000010A039880ED020A04988179C279007ABD
:1019C000000440EA0220084400909DED000AB8EEB1
:1019D000400A9FED041A20EE010A029880ED000AE9
:1019E00005B0704700401C427047000080B582B0CF
:1019F000ADF80600BDF8060015F018F902B080BD7C
:101A000080B582B0ADF80600BDF8060012F0FEFA0F
:101A100002B080BD83B002900191029908784978A4
:101A200040EA0120ADF80200BDF9020000EE100A04
:101A3000B8EEC00A40F20C00C2F2000090ED001AAD
:101A400020EE010A019981ED000A029A9178D2787C
:101A500041EA0221ADF80210BDF9021000EE101AA1
:101A6000B8EEC00A90ED001A20EE010A019981ED4E
:101A7000010A029A1179527941EA0221ADF8021065
:101A8000BDF9021000EE101AB8EEC00A90ED001A6F
:101A900020EE010A019880ED020A03B070470000B1
:101AA00080B582B000208DF80700FFF72BFFFFF70D
:101AB0009BFF11F091F938B1FFE79DF8070040F066
:101AC00080008DF8070008E011F0BEF801469DF88F
:101AD000070008438DF80700FFE711F0FBFB38B162
:101AE000FFE79DF8070040F040008DF8070008E090
:101AF00011F04CFB01469DF8070008438DF80700E4
:101B0000FFE79DF8070002B080BD000080B588B0F7
:101B10000790069105920020009004900390FFF733
:101B2000E7FE922000F006F9122003A90191062297
:101B300000F0CCF8FFF7D2FE9DF80C009DF80D10D8
:101B400040EA0120ADF80A00BDF90A0000EE100AD3
:101B5000B8EEC00A40F20800C2F2000090ED001A90
:101B600020EE010A069981ED000A9DF80E109DF8FD
:101B70000F2041EA0221ADF80A10BDF90A1000EE6B
:101B8000101AB8EEC00A90ED001A20EE010A06996C
:101B900081ED010A9DF810109DF8112041EA022103
:101BA000ADF80A10BDF90A1000EE101AB8EEC00A1E
:101BB00090ED001A20EE010A069880ED020AFFF768
:101BC000ADFE00980199082200F080F8FFF79CFE16
:101BD0009DF80C000F2844D1FFE79DF80E009DF8FA
:101BE0000F1040EA0120ADF80A00BDF90A0000EE2E
:101BF000100AB8EEC00A40F20C00C2F2000090EDEC
:101C0000001A20EE010A079981ED000A9DF81010D4
:101C10009DF8112041EA0221ADF80A10BDF90A1021
:101C200000EE101AB8EEC00A90ED001A20EE010A7C
:101C3000079981ED010A9DF812109DF8132041EAE1
:101C40000221ADF80A10BDF90A1000EE101AB8EE24
:101C5000C00A90ED001A20EE010A079880ED020AF2
:101C6000FFE7FFF745FEA22000F064F8222003A959
:101C7000022200F02BF8FFF731FE9DF80C009DF8D2
:101C80000D10C00040EA5110ADF80A00BDF90A007D
:101C9000B0F5806F07DBFFE7BDF80A00A0F5006034
:101CA000ADF80A00FFE7BDF90A0000EE100AB8EE31
:101CB000C00AB4EE001A20EE010AB3EE071A30EEA5
:101CC000010A059880ED000A08B080BD80B584B097
:101CD0008DF80F0002918DF807209DF80F0040F05D
:101CE000800000F027F8FFE79DF8070070B1FFE7DC
:101CF000552000F01FF802990870029801300290F8
:101D00009DF8070001388DF80700EDE704B080BDAD
:101D100080B582B08DF8070000919DF8070040F073
:101D2000800000F007F8552000F004F800990870D2
:101D300002B080BD80B582B08DF8070069464FF4CF
:101D40007A70086040F26070C2F200000DF1070185
:101D50000DF10602012303F0EDFE9DF8060002B02E
:101D600080BD000083B00290019102990878497803
:101D7000C00040EA5110ADF80200BDF90200B0F514
:101D8000806F07DBFFE7BDF80200A0F50060ADF84B
:101D90000200FFE7BDF9020000EE100AB8EEC00A2B
:101DA000B4EE001A20EE010AB3EE071A30EE010A73
:101DB000019880ED000A03B07047000080B582B042
:101DC0008DF807008DF806109DF80700FFF7B2FFA9
:101DD0009DF80600FFF7AEFF02B080BDFFE7FEE70B
:101DE00080B540F2F050C2F2000001F0FDFC80BD71
:101DF00080B540F21860C2F2000001F0F5FC80BD31
:101E000080B584B0ADF80E00ADF80C10ADF80A2026
:101E1000ADF8083040F2C841C2F200014FF4007042
:101E2000086000208860C860082008619DF80F00E5
:101E300040F22032C2F2000210709DF80E00507085
:101E40009DF80D0090709DF80C00D0709DF80B006F
:101E500010719DF80A0050719DF8090090719DF86D
:101E60000800D07140F2F050C2F2000001AB01F066
:101E700035FA04B080BD000080B540F20070C2F2B7
:101E8000000002F023FA80BD80B5E2B040F260703D
:101E9000C2F20000C06C006846F25941C4F202016F
:101EA0008842C0F0F380FFE746F20440C4F202002B
:101EB0000068619040F26070C2F20000C06C00687F
:101EC00046F21001C4F20201884203D1FFE720204C
:101ED0006090D6E040F26070C2F20000C06C006812
:101EE00046F21041C4F20201884203D1FFE72020EC
:101EF0005F90C3E040F26070C2F20000C06C006806
:101F000046F27001C4F20201884203D1FFE72020AB
:101F10005E90B0E040F26070C2F20000C06C0068F9
:101F200046F27041C4F20201884203D1FFE720204B
:101F30005D909DE040F26070C2F20000C06C0068ED
:101F400046F22801C4F20201884204D1FFE74FF4AF
:101F500000605C9089E040F26070C2F20000C06CEA
:101F6000006846F22841C4F20201884204D1FFE72A
:101F70004FF400605B9075E040F26070C2F20000C8
:101F8000C06C006846F28801C4F20201884204D1A4
:101F9000FFE74FF400605A9061E040F26070C2F2D7
:101FA0000000C06C006846F28841C4F20201884219
:101FB00004D1FFE74FF4006059904DE040F26070AB
:101FC000C2F20000C06C006846F24001C4F2020197
:101FD000884204D1FFE74FF40010589039E040F2F6
:101FE0006070C2F20000C06C006846F24041C4F26A
:101FF0000201884204D1FFE74FF40010579025E01A
:1020000040F26070C2F20000C06C006846F2A001AD
:10201000C4F20201884204D1FFE74FF40010569049
:1020200011E040F26070C2F20000C06C016846F23C
:10203000A042C4F202024FF00060914208BF4FF488
:1020400000105690FFE756985790FFE75798589022
:10205000FFE758985990FFE759985A90FFE75A9828
:102060005B90FFE75B985C90FFE75C985D90FFE713
:102070005D985E90FFE75E985F90FFE75F986090E5
:10208000FFE76198609908405590F7E240F2607070
:10209000C2F20000C06C006846F2B901C4F202014D
:1020A0008842C0F0F380FFE746F20040C4F202002D
:1020B0000068549040F26070C2F20000C06C00688A
:1020C00046F21001C4F20201884203D1FFE720204A
:1020D0005390D6E040F26070C2F20000C06C00681D
:1020E00046F21041C4F20201884203D1FFE72020EA
:1020F0005290C3E040F26070C2F20000C06C006811
:1021000046F27001C4F20201884203D1FFE72020A9
:102110005190B0E040F26070C2F20000C06C006804
:1021200046F27041C4F20201884203D1FFE7202049
:1021300050909DE040F26070C2F20000C06C0068F8
:1021400046F22801C4F20201884204D1FFE74FF4AD
:1021500000604F9089E040F26070C2F20000C06CF5
:10216000006846F22841C4F20201884204D1FFE728
:102170004FF400604E9075E040F26070C2F20000D3
:10218000C06C006846F28801C4F20201884204D1A2
:10219000FFE74FF400604D9061E040F26070C2F2E2
:1021A0000000C06C006846F28841C4F20201884217
:1021B00004D1FFE74FF400604C904DE040F26070B6
:1021C000C2F20000C06C006846F24001C4F2020195
:1021D000884204D1FFE74FF400104B9039E040F201
:1021E0006070C2F20000C06C006846F24041C4F268
:1021F0000201884204D1FFE74FF400104A9025E025
:1022000040F26070C2F20000C06C006846F2A001AB
:10221000C4F20201884204D1FFE74FF40010499054
:1022200011E040F26070C2F20000C06C016846F23A
:10223000A042C4F202024FF00060914208BF4FF486
:1022400000104990FFE749984A90FFE74A984B9061
:10225000FFE74B984C90FFE74C984D90FFE74D9867
:102260004E90FFE74E984F90FFE74F985090FFE752
:1022700050985190FFE751985290FFE75298539031
:10228000FFE75498539908404890F4E140F2607099
:10229000C2F20000C06C006846F25901C4F20201AB
:1022A0008842C0F0F380FFE746F20400C4F2020067
:1022B0000068479040F26070C2F20000C06C006895
:1022C00046F21001C4F20201884203D1FFE7202048
:1022D0004690D6E040F26070C2F20000C06C006828
:1022E00046F21041C4F20201884203D1FFE72020E8
:1022F0004590C3E040F26070C2F20000C06C00681C
:1023000046F27001C4F20201884203D1FFE72020A7
:102310004490B0E040F26070C2F20000C06C00680F
:1023200046F27041C4F20201884203D1FFE7202047
:1023300043909DE040F26070C2F20000C06C006803
:1023400046F22801C4F20201884204D1FFE74FF4AB
:102350000060429089E040F26070C2F20000C06C00
:10236000006846F22841C4F20201884204D1FFE726
:102370004FF40060419075E040F26070C2F20000DE
:10238000C06C006846F28801C4F20201884204D1A0
:10239000FFE74FF40060409061E040F26070C2F2ED
:1023A0000000C06C006846F28841C4F20201884215
:1023B00004D1FFE74FF400603F904DE040F26070C1
:1023C000C2F20000C06C006846F24001C4F2020193
:1023D000884204D1FFE74FF400103E9039E040F20C
:1023E0006070C2F20000C06C006846F24041C4F266
:1023F0000201884204D1FFE74FF400103D9025E030
:1024000040F26070C2F20000C06C006846F2A001A9
:10241000C4F20201884204D1FFE74FF400103C905F
:1024200011E040F26070C2F20000C06C016846F238
:10243000A042C4F202024FF00060914208BF4FF484
:1024400000103C90FFE73C983D90FFE73D983E90A0
:10245000FFE73E983F90FFE73F984090FFE74098A6
:102460004190FFE741984290FFE742984390FFE791
:1024700043984490FFE744984590FFE7459846907D
:10248000FFE74798469908403B90F1E046F200008C
:10249000C4F2020000683A9040F26070C2F200009C
:1024A000C06C006846F21001C4F20201884203D1F8
:1024B000FFE720203990D6E040F26070C2F20000C1
:1024C000C06C006846F21041C4F20201884203D198
:1024D000FFE720203890C3E040F26070C2F20000B5
:1024E000C06C006846F27001C4F20201884203D158
:1024F000FFE720203790B0E040F26070C2F20000A9
:10250000C06C006846F27041C4F20201884203D1F7
:10251000FFE7202036909DE040F26070C2F200009C
:10252000C06C006846F22801C4F20201884204D15E
:10253000FFE74FF40060359089E040F26070C2F22E
:102540000000C06C006846F22841C4F202018842D3
:1025500004D1FFE74FF40060349075E040F2607002
:10256000C2F20000C06C006846F28801C4F20201A9
:10257000884204D1FFE74FF40060339061E040F2FD
:102580006070C2F20000C06C006846F28841C4F27C
:102590000201884204D1FFE74FF4006032904DE021
:1025A00040F26070C2F20000C06C006846F2400168
:1025B000C4F20201884204D1FFE74FF400103190C9
:1025C00039E040F26070C2F20000C06C006846F270
:1025D0004041C4F20201884204D1FFE74FF40010E9
:1025E000309025E040F26070C2F20000C06C0068DC
:1025F00046F2A001C4F20201884204D1FFE74FF481
:1026000000102F9011E040F26070C2F20000C06C28
:10261000016846F2A042C4F202024FF0006091420B
:1026200008BF4FF400102F90FFE72F983090FFE77E
:1026300030983190FFE731983290FFE7329833902D
:10264000FFE733983490FFE734983590FFE73598EB
:102650003690FFE736983790FFE737983890FFE7D6
:1026600038983990FFE73A98399908403B90FFE74E
:102670003B984890FFE748985590FFE75598002809
:1026800000F06484FFE740F26070C2F20000C06CAA
:10269000006846F25941C4F202018842C0F0EF805E
:1026A000FFE740F26070C2F20000C06C006846F2C2
:1026B0001001C4F20201884203D1FFE720202E90CE
:1026C000D6E040F26070C2F20000C06C006846F2D2
:1026D0001041C4F20201884203D1FFE720202D906F
:1026E000C3E040F26070C2F20000C06C006846F2C5
:1026F0007001C4F20201884203D1FFE720202C9030
:10270000B0E040F26070C2F20000C06C006846F2B7
:102710007041C4F20201884203D1FFE720202B90D0
:102720009DE040F26070C2F20000C06C006846F2AA
:102730002801C4F20201884204D1FFE74FF400608F
:102740002A9089E040F26070C2F20000C06C00681C
:1027500046F22841C4F20201884204D1FFE74FF457
:102760000060299075E040F26070C2F20000C06C19
:10277000006846F28801C4F20201884204D1FFE7F2
:102780004FF40060289061E040F26070C2F20000F7
:10279000C06C006846F28841C4F20201884204D14C
:1027A000FFE74FF4006027904DE040F26070C2F206
:1027B0000000C06C006846F24001C4F20201884289
:1027C00004D1FFE74FF40010269039E040F260702A
:1027D000C2F20000C06C006846F24041C4F202013F
:1027E000884204D1FFE74FF40010259025E040F225
:1027F0006070C2F20000C06C006846F2A001C4F232
:102800000201884204D1FFE74FF40010249011E048
:1028100040F26070C2F20000C06C016846F2A04253
:10282000C4F202024FF00060914208BF4FF4001062
:102830002490FFE724982590FFE725982690FFE74E
:1028400026982790FFE727982890FFE72898299057
:10285000FFE729982A90FFE72A982B90FFE72B980B
:102860002C90FFE72C982D90FFE72D982E90FFE7F6
:102870002E9846F20C41C4F202010860EDE240F2EB
:102880006070C2F20000C06C006846F2B901C4F288
:1028900002018842C0F0F080FFE740F26070C2F2AF
:1028A0000000C06C006846F21001C4F202018842C8
:1028B00003D1FFE720202390D6E040F26070C2F2FF
:1028C0000000C06C006846F21041C4F20201884268
:1028D00003D1FFE720202290C3E040F26070C2F2F3
:1028E0000000C06C006846F27001C4F20201884228
:1028F00003D1FFE720202190B0E040F26070C2F2E7
:102900000000C06C006846F27041C4F202018842C7
:1029100003D1FFE7202020909DE040F26070C2F2DA
:102920000000C06C006846F22801C4F2020188422F
:1029300004D1FFE74FF400601F9089E040F260701F
:10294000C2F20000C06C006846F22841C4F20201E5
:10295000884204D1FFE74FF400601E9075E040F21A
:102960006070C2F20000C06C006846F28801C4F2D8
:102970000201884204D1FFE74FF400601D9061E03E
:1029800040F26070C2F20000C06C006846F28841FC
:10299000C4F20201884204D1FFE74FF400601C90AA
:1029A0004DE040F26070C2F20000C06C006846F278
:1029B0004001C4F20201884204D1FFE74FF4001045
:1029C0001B9039E040F26070C2F20000C06C0068F9
:1029D00046F24041C4F20201884204D1FFE74FF4BD
:1029E00000101A9025E040F26070C2F20000C06C46
:1029F000006846F2A001C4F20201884204D1FFE758
:102A00004FF40010199011E040F26070C2F2000023
:102A1000C06C016846F2A042C4F202024FF00060AE
:102A2000914208BF4FF400101990FFE719981A90CF
:102A3000FFE71A981B90FFE71B981C90FFE71C9874
:102A40001D90FFE71D981E90FFE71E981F90FFE75F
:102A50001F982090FFE720982190FFE7219822906F
:102A6000FFE722982390FFE7239846F20841C4F23B
:102A7000020108601890EEE140F26070C2F20000BE
:102A8000C06C006846F25901C4F202018842C0F0ED
:102A9000F080FFE740F26070C2F20000C06C006896
:102AA00046F21001C4F20201884203D1FFE7202060
:102AB0001790D6E040F26070C2F20000C06C00686F
:102AC00046F21041C4F20201884203D1FFE7202000
:102AD0001690C3E040F26070C2F20000C06C006863
:102AE00046F27001C4F20201884203D1FFE72020C0
:102AF0001590B0E040F26070C2F20000C06C006857
:102B000046F27041C4F20201884203D1FFE720205F
:102B100014909DE040F26070C2F20000C06C00684A
:102B200046F22801C4F20201884204D1FFE74FF4C3
:102B30000060139089E040F26070C2F20000C06C47
:102B4000006846F22841C4F20201884204D1FFE73E
:102B50004FF40060129075E040F26070C2F2000025
:102B6000C06C006846F28801C4F20201884204D1B8
:102B7000FFE74FF40060119061E040F26070C2F234
:102B80000000C06C006846F28841C4F2020188422D
:102B900004D1FFE74FF4006010904DE040F2607008
:102BA000C2F20000C06C006846F24001C4F20201AB
:102BB000884204D1FFE74FF400100F9039E040F253
:102BC0006070C2F20000C06C006846F24041C4F27E
:102BD0000201884204D1FFE74FF400100E9025E077
:102BE00040F26070C2F20000C06C006846F2A001C2
:102BF000C4F20201884204D1FFE74FF400100D90A7
:102C000011E040F26070C2F20000C06C016846F250
:102C1000A042C4F202024FF00060914208BF4FF49C
:102C200000100D90FFE70D980E90FFE70E980F90A3
:102C3000FFE70F981090FFE710981190FFE71198A9
:102C40001290FFE712981390FFE713981490FFE794
:102C500014981590FFE715981690FFE716981790AF
:102C6000FFE7179846F20C01C4F2020108600C90CD
:102C7000EEE040F26070C2F20000C06C006846F204
:102C80001001C4F20201884203D1FFE720200B901B
:102C9000D6E040F26070C2F20000C06C006846F2FC
:102CA0001041C4F20201884203D1FFE720200A90BC
:102CB000C3E040F26070C2F20000C06C006846F2EF
:102CC0007001C4F20201884203D1FFE7202009907D
:102CD000B0E040F26070C2F20000C06C006846F2E2
:102CE0007041C4F20201884203D1FFE7202008901E
:102CF0009DE040F26070C2F20000C06C006846F2D5
:102D00002801C4F20201884204D1FFE74FF40060B9
:102D1000079089E040F26070C2F20000C06C006869
:102D200046F22841C4F20201884204D1FFE74FF481
:102D30000060069075E040F26070C2F20000C06C66
:102D4000006846F28801C4F20201884204D1FFE71C
:102D50004FF40060059061E040F26070C2F2000044
:102D6000C06C006846F28841C4F20201884204D176
:102D7000FFE74FF4006004904DE040F26070C2F253
:102D80000000C06C006846F24001C4F202018842B3
:102D900004D1FFE74FF40010039039E040F2607077
:102DA000C2F20000C06C006846F24041C4F2020169
:102DB000884204D1FFE74FF40010029025E040F272
:102DC0006070C2F20000C06C006846F2A001C4F25C
:102DD0000201884204D1FFE74FF40010019011E096
:102DE00040F26070C2F20000C06C016846F2A0427E
:102DF000C4F202024FF00060914208BF4FF400108D
:102E00000190FFE701980290FFE702980390FFE727
:102E100003980490FFE704980590FFE70598069053
:102E2000FFE706980790FFE707980890FFE70898E4
:102E30000990FFE709980A90FFE70A980B90FFE7CF
:102E40000B9846F20801C4F2020108600C90FFE7FB
:102E50000C981890FFE71898FFE740F2ED50C2F287
:102E6000000000788007002815D5FFE740F2ED51FB
:102E7000C2F20001087800F0FD000870087840F008
:102E80000400087040F20040C4F202000122114622
:102E900001F0FEFEFFE740F25C20C2F20000007885
:102EA0008007002814D5FFE740F25C21C2F2000140
:102EB000087800F0FD000870087840F00400087001
:102EC0000020C4F202001021012201F0E1FEFFE720
:102ED00040F25B20C2F2000000788007002814D581
:102EE000FFE740F25B21C2F20001087800F0FD002C
:102EF0000870087840F0040008700020C4F2020056
:102F00001021012201F0C4FEFFE712F075FC40F22F
:102F1000ED50C2F2000000784007002815D5FFE709
:102F200040F2ED51C2F20001087800F0FB00087099
:102F3000087840F00800087043F61041C4F201011F
:102F4000086840F001000860FFE7FFE762B080BD5D
:102F500082B001900198007810384AF6AB21CAF689
:102F6000AA21A0FB01100009009000994EF2040074
:102F7000C0F60100405C0199C8650098042807D399
:102F8000FFE701990868042262F30900886506E0FA
:102F90000199086840F2FF3290438865FFE7019885
:102FA000806D02B07047000086B0059000208DF85B
:102FB00013000598806A03900598806910BBFFE7AD
:102FC0000398029003281BD80299DFE801F0020D54
:102FD0000218059890F82F00C00720B1FFE70120E4
:102FE0008DF81300FFE70CE00598C06AB0F1C07FD0
:102FF00004D1FFE701208DF81300FFE701E000E0B6
:10300000FFE745E005988069B0F5005F25D1FFE74F
:103010000398019003281ED80199DFE801F0020609
:10302000021101208DF8130016E0059890F82F008A
:10303000C00720B1FFE701208DF81300FFE70BE088
:103040000598C06AB0F1C07F04D1FFE701208DF878
:103050001300FFE700E0FFE719E003980090032862
:1030600004D3FFE70098032804D00EE001208DF878
:1030700013000BE0059890F82F00C00720B1FFE780
:1030800001208DF81300FFE700E0FFE7FFE7FFE70F
:103090009DF8130006B0704780B586B08DED040A28
:1030A000CDED030A04981AF069FD41EC100B9FED79
:1030B000121B50EC111BC20F51EC100B62F3DF71AD
:1030C00041EC100B8DED000B03981AF057FD9DEDB0
:1030D000001B41EC100B51EC110B53EC102B1AF0B0
:1030E0008DFD18B9FFE70020059002E00120059052
:1030F000FFE7059806B080BD00000000000000005A
:103100007047000080B5012001F0B2FB80BD0000D7
:1031100080B5082001F0ACFB80BD000080B5102018
:1031200001F0A6FB80BD000080B5202001F0A0FBCF
:1031300080BD00007047000080B584B084460698CA
:10314000ADF80EC0ADF80C10ADF80A20ADF808309F
:10315000ADF8060000208DF80500FFE79DF805009A
:103160001F2873DCFFE700208DF80400FFE79DF8BF
:103170000400032863DCFFE7BDF806104EF2A6103A
:10318000C0F6010000EBC1109DF8051000EB8100B6
:103190009DF80410405C8DF8020000208DF80300BB
:1031A000FFE79DF80300072842DCFFE79DF80200D7
:1031B0009DF803208021D140084215D0FFE7BDF8DB
:1031C0000E009DF8041000EBC1009DF803100844A8
:1031D000BDF80C109DF805201144BDF80A2089B2F5
:1031E00080B200F035F81CE0BDF80A00BDF8081008
:1031F000884215D0FFE7BDF80E009DF8041000EBE3
:10320000C1009DF803100844BDF80C109DF805207E
:103210001144BDF8082089B280B200F019F8FFE728
:10322000FFE7FFE79DF8030001308DF80300B8E7E2
:10323000FFE79DF8040001308DF8040097E7FFE7F1
:103240009DF8050001308DF8050087E704B080BDCA
:1032500080B582B0ADF80600ADF80410ADF80220DC
:10326000BDF80600BDF80410421C4B1C92B29BB284
:1032700005F040FB9DF8030005F06EFB9DF8020091
:1032800005F06AFB02B080BD84B002900191029803
:1032900090F820008DF803009DF80300012805D068
:1032A000FFE79DF8030002280AD1FFE7019A029880
:1032B000016848691043486100208DF80F0008E05C
:1032C0000299486A40F48020486201208DF80F007E
:1032D000FFE79DF80F0004B07047000088B006902B
:1032E000059104920393069890F820008DF807004A
:1032F00006980068806800900598806808B9FFE724
:1033000000E0FFE79DF80700012806D0FFE79DF8E1
:103310000700022840F08D80FFE79DF8030040077A
:1033200000280CD4FFE79DF803000007002806D40E
:10333000FFE79DF80300C006002871D5FFE700985D
:10334000C0F3016002900298032809D3FFE70699B1
:10335000486A40F40000486201208DF81F0071E0C7
:10336000029901208840039908600598806868B92F
:10337000FFE705980168C06840EA4150069909686E
:10338000029A01EB0211C1F880010EE005994A682A
:103390008868C96840EAC200084306990968029A29
:1033A00001EB0211C1F88001FFE705980069069959
:1033B0000968029A01EB0211C1F884010598007DA9
:1033C00001280CD1FFE706980068029900EB011173
:1033D000D1F8840140F48070C1F88401FFE70498BB
:1033E000406806990968029A01EB0211C1F88C0144
:1033F0000498006806990968029A01EB0211C1F865
:10340000880106980068029900EB0111D1F880014B
:1034100040F00100C1F8800100208DF81F0011E08C
:103420000699486A40F40010486201208DF81F0098
:1034300008E00699486A40F48020486201208DF82F
:103440001F00FFE79DF81F0008B0704786B004908A
:103450000391049800680190049890F820008DF87A
:1034600003009DF80300012806D0FFE79DF8030044
:10347000022840F0B080FFE746F20040C4F20000AE
:1034800001900199D1F8000240F00100C1F800025A
:103490000199D1F8000220F47C50C1F80002039891
:1034A000426A0199D1F8000240EA0220C1F8000204
:1034B0000398406900F01F01012088400290029AA1
:1034C0000199D1F81C029043C1F81C020398C0690D
:1034D000F0B9FFE7029A0199D1F80C029043C1F8C4
:1034E0000C02039A9088D168526940EA0140019920
:1034F00001EBC201C1F84002039A10889168526939
:1035000040EA0140019901EBC201C1F84402FFE722
:103510000398C06901281ED1FFE7029A0199D1F8EA
:103520000C021043C1F80C02039A9088116852698A
:1035300040EA0140019901EBC201C1F84002039A3F
:1035400090899168526940EA0140019901EBC201FA
:10355000C1F84402FFE70398806940B9FFE7029A87
:103560000199D1F804029043C1F8040207E0029ADD
:103570000199D1F804021043C1F80402FFE703984F
:10358000006940B9FFE7029A0199D1F8140290430B
:10359000C1F8140207E0029A0199D1F8140210430D
:1035A000C1F81402FFE70398006A012808D1FFE779
:1035B000029A0199D1F81C021043C1F81C02FFE7DE
:1035C0000199D1F8000220F00100C1F800020020AA
:1035D0008DF8170008E00499486A40F4802048629A
:1035E00001208DF81700FFE79DF8170006B070471F
:1035F00081B0009001B0704786B0049003910292B0
:103600000193049890F820008DF803009DF80300C2
:10361000012806D0FFE79DF80300022840F0D7807C
:10362000FFE7039880B9FFE704980068C068800747
:1036300048B9FFE70499486A40F400104862012045
:103640008DF81700CCE00FE004980068006980074F
:1036500048B9FFE70499486A40F400104862012025
:103660008DF81700BCE0FFE704980068039900EBB1
:103670000110D0F8B00100F00400029988600298AF
:10368000806858B9FFE704980068039900EB0110BF
:10369000D0F8B001400D029908600AE00498006873
:1036A000039900EB0110D0F8B001C00802994860FE
:1036B000FFE704980068039900EB0110D0F8B0010F
:1036C00000F002000299C86004980068039900EBBA
:1036D0000110D0F8B40100F00F00029908610498BD
:1036E0000068039900EB0110D0F8B40180B2000A21
:1036F0000299886104980068039900EB0110D0F8E2
:10370000B401000C0299486104980068039900EB29
:103710000110D0F8B8010199087004980068039965
:1037200000EB0110D0F8B801000A01994870049824
:103730000068039900EB0110D0F8B801000C019962
:10374000887004980068039900EB0110D0F8B80164
:10375000000E0199C87004980068039900EB0110ED
:10376000D0F8BC010199087104980068039900EB36
:103770000110D0F8BC01000A019948710498006852
:10378000039900EB0110D0F8BC01000C019988717D
:1037900004980068039900EB0110D0F8BC01000EFA
:1037A0000199C871039838B9FFE704980168C8689F
:1037B00040F02000C86006E004980168086940F005
:1037C00020000861FFE700208DF8170008E0049949
:1037D000486A40F48020486201208DF81700FFE716
:1037E0009DF8170006B0704780B58AB00990002098
:1037F0000890099800684069079009980068406837
:103800000690099800688068059009980068C0686B
:10381000049009980068006903900998006880691D
:1038200002909DF81C00C007002800F09480FFE77C
:103830009DF81400C00758B3FFE7099801680120FC
:1038400088609DF814008007002804D5FFE70998D8
:1038500000F08CFC1BE09DF814004007002805D503
:10386000FFE7089840F4006008900FE09DF814000E
:103870000007002805D5FFE7089840F4805008901D
:1038800003E0099800F06EFCFFE7FFE7FFE7FFE7C2
:103890009DF81500C00760B3FFE7099801684FF471
:1038A000807088609DF815008007002804D5FFE728
:1038B000099800F063FC1BE09DF815004007002804
:1038C00005D5FFE7089840F4005008900FE09DF8F8
:1038D00015000007002805D5FFE7089840F4804050
:1038E000089003E0099800F045FCFFE7FFE7FFE7D9
:1038F000FFE79DF81600C00760B3FFE7099801686D
:103900004FF4803088609DF816008007002804D5A9
:10391000FFE7099800F03AFC1BE09DF8160040070D
:10392000002805D5FFE7089840F4004008900FE014
:103930009DF816000007002805D5FFE7089840F419
:103940008030089003E0099800F01CFCFFE7FFE7D7
:10395000FFE7FFE7FFE79DF81C000007002810D5F0
:10396000FFE79DF81000C006002809D5FFE708987A
:1039700040F400700890099801681020C860FFE7C3
:10398000FFE79DF81C00400700280FD5FFE79DF8D2
:1039900010000007002808D5FFE7099801680820F3
:1039A000C860099800F0CCFAFFE7FFE79DF81C001B
:1039B000800700280BD5FFE709980068C0688007DA
:1039C00020B1FFE7099800F0BFFAFFE7FFE79DF895
:1039D0001C004006002810D5FFE79DF80C00C0062B
:1039E000002809D5FFE7089840F4806008900998FE
:1039F000016810200861FFE7FFE79DF81C008006C2
:103A000000280FD5FFE79DF80C000007002808D517
:103A1000FFE70998016808200861099800F050FB49
:103A2000FFE7FFE79DF81C00C00600280BD5FFE765
:103A3000099800680069800720B1FFE7099800F045
:103A400043FBFFE7FFE79DF81E00800700280FD526
:103A5000FFE79DF81800C006002808D5FFE7099881
:103A6000016810204860099800F032FBFFE7FFE78B
:103A70009DF81E00C00778B1FFE79DF81800000709
:103A8000002808D5FFE709980168082048600998D0
:103A900000F080FBFFE7FFE79DF81D00000600280F
:103AA00040F18D80FFE79DF818004007002840F1A5
:103AB0008180FFE79DF81D00C00750B1FFE79DF82A
:103AC0000800C00728B1FFE7089840F001000890FF
:103AD000FFE79DF81D00800700280BD5FFE79DF844
:103AE00008008007002805D5FFE7089840F002008D
:103AF0000890FFE79DF81D00400700280BD5FFE761
:103B00009DF808004007002805D5FFE7089840F019
:103B100004000890FFE79DF81D000007002848D525
:103B2000FFE79DF8080010F0700F42D0FFE7029801
:103B300000F0700001460191102814D0FFE70198B1
:103B4000202815D0FFE70198302816D0FFE701980C
:103B5000402817D0FFE70198502818D0FFE70198B8
:103B6000602819D01DE0089840F00800089019E07E
:103B7000089840F01000089014E0089840F02000E9
:103B800008900FE0089840F0400008900AE008987C
:103B900040F08000089005E0089840F4807008909C
:103BA00000E0FFE709980168886920F070008861EB
:103BB000FFE7FFE70998016804204860FFE70898DD
:103BC00048B1FFE7089A0999486A10434862099882
:103BD000FFF70EFDFFE70AB080BD000080B584B09E
:103BE0000290029820B9FFE701208DF80F00E0E075
:103BF000029890F8200020B9FFE7029800F0DEF864
:103C0000FFE702980168086840F00100086001F0D1
:103C100057F80190FFE7029800684068C007A8B90C
:103C2000FFE701F04DF80199401A0B280DD3FFE78B
:103C30000299486A40F4003048620299052081F8F0
:103C4000200001208DF80F00B3E0E4E7029801683E
:103C5000086820F00200086001F032F80190FFE7E8
:103C60000298006840688007002815D5FFE701F03A
:103C700027F80199401A0B280DD3FFE70299486AEB
:103C800040F4003048620299052081F820000120AC
:103C90008DF80F008DE0E3E70298007E012807D140
:103CA000FFE702980168086840F08000086006E0BD
:103CB00002980168086820F080000860FFE7029819
:103CC000407E012807D1FFE702980168086840F0AC
:103CD0004000086006E002980168086820F0400093
:103CE0000860FFE70298807E012807D1FFE702986D
:103CF0000168086840F02000086006E0029801684A
:103D0000086820F020000860FFE70298C07E0128C4
:103D100007D1FFE702980168086820F010000860EA
:103D200006E002980168086840F010000860FFE7AC
:103D30000298007F012807D1FFE702980168086810
:103D400040F00800086006E002980168086820F06A
:103D500008000860FFE70298407F012807D1FFE7CD
:103D600002980168086840F00400086006E00298C4
:103D70000168086820F004000860FFE7029B1968EA
:103D80005A689868D3F80CC040EA0C00D3F810C009
:103D900040EA0C005B691843013A1043C86102997C
:103DA00000204862029A012182F820108DF80F004D
:103DB000FFE79DF80F0004B080BD000080B590B013
:103DC0000F9000200E900D900C900B900A900F9881
:103DD000006846F20041C4F20001884249D1FFE781
:103DE00040F23810C2F20000016801310160006841
:103DF000012812D1FFE7FFE70020099043F64000B9
:103E0000C4F20200016841F000710160006800F036
:103E1000007009900998FFE7FFE7FFE7002008908E
:103E200043F63000C4F20200016841F0080101606D
:103E3000006800F0080008900898FFE703200A9047
:103E400002210B91002103910C910D9009200E90FD
:103E500040F60040C4F202000AA900F025FD039AD2
:103E600014200490052100F0C9FF049800F0BCFF65
:103E700064E00F98006846F60001C4F20001884231
:103E80005BD1FFE7FFE70020079043F64000C4F254
:103E90000200016841F080610160006800F080600C
:103EA00007900798FFE740F23810C2F2000001685F
:103EB000013101600068012812D1FFE7FFE700200F
:103EC000069043F64000C4F20200016841F0007120
:103ED0000160006800F0007006900698FFE7FFE7B9
:103EE000FFE70020059043F63000C4F202000168AD
:103EF00041F002010160006800F0020005900598A1
:103F0000FFE760200A9002200B90002001900C90A7
:103F100003200D9009200E9040F20040C4F20200F0
:103F20000AA900F0C1FC019A40200290052100F08E
:103F300065FF029800F058FFFFE7FFE710B080BD73
:103F400081B0009001B070472DE9F04194B013901A
:103F5000139800210CAA0AABFFF74EFB0C980990AE
:103F6000A0F20120042812D3FFE7099840F20721AC
:103F700088420CD0FFE70998B0F5047F00F08A80F2
:103F8000FFE70998A0F22230022850D393E00C9862
:103F9000013840F23012C2F200020792107011781C
:103FA00040F22833C2F2000303F5AC70089050F8D9
:103FB00021C0BCF80010ACF80A109DF828C09DF88C
:103FC000291041EA0C2192F800C050F82CC0ACF83E
:103FD00000109DF82AC09DF82B1041EA0C2192F8A0
:103FE00000C050F82CC0ACF802109DF82CC09DF811
:103FF0002D1041EA0C2192F800C050F82CC0ACF80A
:1040000006109DF82E10127850F82220117203F538
:10401000A67103F5A87203F5AA7311F0C5FF0799FD
:104020000898097850F8210011F05EFB44E00C98E4
:1040300040F24012C2F2000206920AA903F03AFFCF
:10404000DDF818E0DEF80000DEF80410DEF80820E5
:10405000DEF80C30DEF810C0DEF81440DEF8185040
:10406000DEF81C60DEF8207040F2283EC2F2000E3E
:104070000EF10408EE46CEF81480CEF81070CEF89B
:104080000C60CEF80850CEF80440CEF800C006F020
:10409000FBFE11E09DF82A0064280BD1FFE79DF894
:1040A000280040F26421C2F2000108709DF8290046
:1040B0004870FFE7FFE7FFE714B0BDE8F0810000BC
:1040C00081B0009001B0704781B0009001B070479E
:1040D00081B0009001B0704780B584B00290029822
:1040E00090F8200001282FD1FFE70299022081F8E3
:1040F000200002980168086820F00100086000F0C4
:10410000DFFD0190FFE7029800684068C007A8B192
:10411000FFE700F0D5FD0199401A0B280DD3FFE70A
:104120000299486A40F4003048620299052081F8FB
:10413000200001208DF80F000FE0E4E70299002035
:1041400048628DF80F0008E00299486A40F40020A8
:10415000486201208DF80F00FFE79DF80F0004B0C2
:1041600080BD000081B0009001B0704781B0009028
:1041700001B0704781B0009001B0704781B00090ED
:1041800001B0704781B0009001B0704781B00090DD
:1041900001B0704781B0009001B0704780B584B025
:1041A00002900298806D019000F08AFD00900298C4
:1041B00090F8350002280DD0FFE70299802048656D
:1041C000FFE70299002081F83400FFE701208DF815
:1041D0000F0055E002980168086820F0160008609A
:1041E00002980168486920F0800048610298006CDC
:1041F00020B9FFE70298806C38B1FFE702980168A8
:10420000086820F008000860FFE702980168086865
:1042100020F001000860FFE7029800680068C0070E
:10422000C8B1FFE700F04CFD0099401A062811D3F1
:10423000FFE70299202048650299032081F83500A4
:10424000FFE70299002081F83400FFE703208DF892
:104250000F0015E0E0E70298C16D3F20884001990A
:1042600088600299012081F83500FFE7029900205B
:1042700081F83400FFE7FFE700208DF80F00FFE72B
:104280009DF80F0004B080BD82B00090009890F8B7
:104290003500022807D0FFE70099802048650120FB
:1042A0008DF807000EE00099052081F83500009890
:1042B0000168086820F001000860FFE700208DF821
:1042C0000700FFE79DF8070002B0704780B586B091
:1042D00005900020039040F23800C2F20000006810
:1042E00048F2B511C1F64E31A0FB0110800A0290D0
:1042F0000598806D019001980068049004980599D4
:10430000C96DC840000700281AD5FFE70598006866
:1043100000684007002812D5FFE705980168086883
:1043200020F0040008600598C16D082088400199BC
:1043300088600599486D40F001004865FFE7FFE798
:1043400004980599C96DC840C007A0B1FFE705985A
:1043500000684069000600280CD5FFE70598C16D8C
:1043600001208840019988600599486D40F002005D
:104370004865FFE7FFE704980599C96DC840400705
:10438000002814D5FFE7059800680068800700281A
:104390000CD5FFE70598C16D04208840019988601D
:1043A0000599486D40F004004865FFE7FFE7049871
:1043B0000599C96DC840C006002847D5FFE7059894
:1043C00000680068000700283FD5FFE70598C16D29
:1043D00010208840019988600598006800684003B3
:1043E00000281AD5FFE70598006800680003002838
:1043F00009D4FFE70598006C20B1FFE70598016C30
:104400008847FFE708E00598806C20B1FFE7059832
:10441000816C8847FFE7FFE716E0059800680068B1
:10442000C005002807D4FFE705980168086820F058
:1044300008000860FFE70598006C20B1FFE70598C9
:10444000016C8847FFE7FFE7FFE7FFE7049805995E
:10445000C96DC8408006002840F18D80FFE70598AF
:1044600000680068C006002840F18480FFE70598D6
:10447000C16D2020884001998860059890F835002A
:10448000052834D1FFE705980168086820F0160078
:10449000086005980168486920F080004861059827
:1044A000006C20B9FFE70598806C38B1FFE70598EC
:1044B0000168086820F008000860FFE70598C16DF2
:1044C0003F208840019988600599012081F83500D6
:1044D000FFE70599002081F83400FFE70598006D9B
:1044E00020B1FFE70598016D8847FFE77BE005985D
:1044F00000680068400300281AD5FFE705980068A7
:1045000000680003002809D4FFE70598406C20B13B
:10451000FFE70598416C8847FFE708E00598C06B06
:1045200020B1FFE70598C16B8847FFE7FFE720E070
:10453000059800680068C005002811D4FFE70598B9
:104540000168086820F0100008600599012081F8D2
:104550003500FFE70599002081F83400FFE7FFE709
:104560000598C06B20B1FFE70598C16B8847FFE74E
:10457000FFE7FFE7FFE70598406DA0B3FFE7059869
:10458000406DC00730B3FFE70599052081F835007D
:1045900005980168086820F001000860FFE70398AB
:1045A000013003900299884201D9FFE707E0FFE755
:1045B000059800680068C0070028F0D1FFE705995A
:1045C000012081F83500FFE70599002081F83400CB
:1045D000FFE7FFE70598C06C20B1FFE70598C16CC5
:1045E0008847FFE7FFE706B080BD000080B586B0D2
:1045F00004900020039000F063FB0290049820B91F
:10460000FFE701208DF81700A3E00498406A08B185
:10461000FFE7FFE70499022081F83500FFE70499DE
:10462000002081F83400FFE704980168086820F052
:1046300001000860FFE7049800680068C00790B1B7
:10464000FFE700F03DFB0299401A06280AD3FFE776
:104650000499202048650499032081F835008DF8DD
:10466000170076E0E7E70498006800680390039875
:1046700048F23F01CFF210010840039004990091E5
:104680004868D1F808C0CB680A6940EA0C001843B2
:1046900010434A6910438A691043CA691043096A82
:1046A00001430398084303900498406A042808D102
:1046B000FFE70499C86A096B014303980843039014
:1046C000FFE7039804990968086004980068406946
:1046D0000390039820F0070003900498416A039820
:1046E000084303900498406A04281AD1FFE704980D
:1046F000816A0398084303900498C06A80B1FFE779
:104700000498FEF751FC50B1FFE70499402048653A
:104710000499012081F835008DF8170019E0FFE7B2
:10472000FFE703980499096848610498FEF710FCB4
:1047300001900498C16D3F208840019988600499D8
:1047400000204865049A012182F835108DF8170081
:10475000FFE79DF8170006B080BD000080B584B06B
:10476000039000F0ADFA0290039801900198013097
:1047700048B1FFE740F27C00C2F2000001780198E6
:1047800008440190FFE7FFE700F09AFA0299401A07
:104790000199884201D2FFE7F6E704B080BD00002E
:1047A00080B582B0ADF80600BDF8060010281BD118
:1047B000FFE740F25C21C2F20001087840F00100FE
:1047C000087040F25B21C2F20001087840F001005D
:1047D000087040F6A810C2F20000007818B1FFE798
:1047E00011F00AF8FFE741E0BDF80600202813D1D8
:1047F000FFE740F2ED51C2F20001087840F00100FD
:10480000087040F6A810C2F20000007818B1FFE767
:1048100010F0F2FFFFE728E0BDF80600012823D1E1
:10482000FFE716F041FB01281DD0FFE740F28010A2
:10483000C2F20000006840F23411C2F2000100919F
:1048400015F0BEF80098006860B1FFE74EF604511D
:10485000CEF200014FF080500860BFF34F8FBFF3DE
:104860006F8FFFE7FFE7FFE7FFE7FFE702B080BDDD
:1048700080B582B0ADF8060043F61440C4F20100E2
:104880000068BDF8061008420CD0FFE7BDF806002E
:1048900043F61441C4F201010860BDF80600FFF7B9
:1048A0007FFFFFE702B080BD8EB00D900C9100201D
:1048B0000A90099008900B90FFE70B980F2800F2E0
:1048C000CC81FFE70B99012088400A900C98006882
:1048D0000A990840099009980A99884240F0B881DD
:1048E000FFE70C98406800F00300012807D0FFE7BD
:1048F0000C98406800F0030002282FD1FFE70D98C4
:10490000806808900B984100032000FA01F1089894
:10491000884308900C98C0680B99490000FA01F18F
:1049200008980843089008980D9988600D98406889
:1049300008900B99012000FA01F10898884308902B
:104940000C984068C0F300100B9900FA01F1089828
:104950000843089008980D994860FFE70C98406854
:1049600000F00300032818D0FFE70D98C0680890F6
:104970000B984100032000FA01F108988843089041
:104980000C9880680B99490000FA01F108980843D7
:10499000089008980D99C860FFE70C98406800F0EF
:1049A0000300022826D1FFE70D980B996FF0030250
:1049B00002EA51010844006A08900B9800F00700D1
:1049C00081000F2000FA01F10898884308900C98A4
:1049D00000690B9901F00701890000FA01F10898BC
:1049E0000843089008980D990B9B02EA5302114462
:1049F0000862FFE70D98006808900B9841000320BB
:104A000000FA01F10898884308900C98406800F07B
:104A100003000B99490000FA01F108980843089037
:104A200008980D9908600C9880798007002800F09C
:104A30000E81FFE7FFE70020079043F64400C4F231
:104A40000200016841F480410160006800F4804088
:104A500007900798FFE70B9820F0030043F6080142
:104A6000C4F20101405808900B9800F00300810047
:104A70000F2000FA01F10898884308900D98002152
:104A8000C4F20201884203D1FFE7002006905EE0F5
:104A90000D9840F20041C4F20201884203D1FFE7C1
:104AA0000120059050E00D9840F60001C4F202018B
:104AB000884203D1FFE70220049042E00D9840F6BF
:104AC0000041C4F20201884203D1FFE703200390B2
:104AD00034E00D9841F20001C4F20201884203D192
:104AE000FFE70420029026E00D9841F20041C4F255
:104AF0000201884203D1FFE70520019018E00D98DC
:104B000041F60001C4F20201884203D1FFE706200A
:104B100000900AE00D9941F60042C4F2020208201A
:104B2000914208BF07200090FFE700980190FFE73F
:104B300001980290FFE702980390FFE70398049022
:104B4000FFE704980590FFE705980690FFE70698B1
:104B5000C0B20B9901F00301890000FA01F1089835
:104B60000843089008980B9921F0030143F60802C6
:104B7000C4F20102885043F60840C4F20100006804
:104B8000089009990898884308900C988079C00685
:104B9000002805D5FFE70999089808430890FFE722
:104BA000089843F60841C4F20101086043F60C403E
:104BB000C4F2010000680890099908988843089099
:104BC0000C9880798006002805D5FFE70999089898
:104BD00008430890FFE7089843F60C41C4F201012E
:104BE000086043F60440C4F2010000680890099987
:104BF0000898884308900C9880798007002805D58C
:104C0000FFE70999089808430890FFE7089843F6DA
:104C10000441C4F20101086043F60040C4F20100FF
:104C20000068089009990898884308900C98807942
:104C3000C00728B1FFE70999089808430890FFE7E3
:104C4000089843F60041C4F201010860FFE7FFE75E
:104C5000FFE70B9801300B902FE60EB07047000075
:104C600082B00190ADF8021001980069BDF8021001
:104C7000084204D0FFE701208DF8010003E0002086
:104C80008DF80100FFE79DF8010002B070470000B9
:104C900082B00190ADF802108DF801209DF801005E
:104CA00028B1FFE7BDF802000199886105E0BDF871
:104CB0000200000401998861FFE702B0704700001C
:104CC00047F2C410C2F200000068704740F27C0056
:104CD000C2F20000027847F2C411C2F20001086873
:104CE000104408607047000080B543F60041C4F2EC
:104CF0000201086840F400700860086840F48060B1
:104D00000860086840F480700860032000F090F8A4
:104D10000F2000F005F800F03BF8002080BD0000F7
:104D200080B582B0009040F23800C2F20000006806
:104D300040F27C01C2F200010A784FF47A71B1FBB3
:104D4000F2F1B0FBF1F001F0A9F820B1FFE701208A
:104D50008DF8070018E000980F280DD8FFE700999C
:104D60004FF0FF30002200F049F8009840F2800137
:104D7000C2F20001086003E001208DF8070003E0A3
:104D800000208DF80700FFE79DF8070002B080BD06
:104D900080B582B0FFE70020019043F64400C4F2E2
:104DA0000200016841F480410160006800F4804025
:104DB00001900198FFE7FFE70020009043F64000D4
:104DC000C4F20200016841F080510160006800F007
:104DD000805000900098FFE76FF001000F21002243
:104DE00000F00CF802B080BD80B582B08DF80700ED
:104DF0009DF907000CF038FE02B080BD80B586B08A
:104E00008DF8170004910392002002900CF044FEEC
:104E100002909DF91700019002980499039A05F0F9
:104E200087FB014601980CF03FFE06B080BD0000F4
:104E300080B582B0019001980CF058FE02B080BDA0
:104E400080B584B002900191029820B9FFE701205B
:104E50008DF80F0021E1019843F60041C4F20201F0
:104E6000096801F00701884212D9FFE7019943F66A
:104E70000040C4F202000170006800F007000199D0
:104E8000884204D0FFE701208DF80F0005E1FFE71D
:104E900002980078800700282AD5FFE7029800785A
:104EA0004007002809D5FFE743F60801C4F20201D4
:104EB000086840F4E0500860FFE7029800780007B7
:104EC000002809D5FFE743F60801C4F2020108688B
:104ED00040F460400860FFE743F60801C4F20201B5
:104EE000086820F0F000029A926810430860FFE71B
:104EF00002980078C00700286ED0FFE7029840684B
:104F0000012811D1FFE743F60000C4F20200006857
:104F100000F400310020B0EB514F04D1FFE7012035
:104F20008DF80F00B9E02CE002984068022805D007
:104F3000FFE702984068032811D1FFE743F600001D
:104F4000C4F20200006800F000710020B0EB516F65
:104F500004D1FFE701208DF80F009EE010E043F63A
:104F60000000C4F20200006800F002010020B0EB73
:104F7000510F04D1FFE701208DF80F008DE0FFE70E
:104F8000FFE743F60801C4F20201086820F00300BD
:104F9000029A526810430860FFF792FE0090FFE704
:104FA00043F60800C4F20200006800F00C00029909
:104FB0004968B0EB810F0ED0FFE7FFF781FE009943
:104FC000401A41F28931884204D3FFE703208DF86B
:104FD0000F0062E0E4E7FFE7019843F60041C4F206
:104FE0000201096801F00701884212D2FFE7019926
:104FF00043F60040C4F202000170006800F00700B0
:105000000199884204D0FFE701208DF80F0044E0A9
:10501000FFE702980078400700280CD5FFE743F629
:105020000801C4F20201086820F4E050029AD26834
:1050300010430860FFE702980078000700280DD5AC
:10504000FFE743F60801C4F20201086820F460405B
:10505000029A126940EAC2000860FFE700F04CF8CB
:1050600043F60801C4F202010968C9B20A094DF603
:10507000EC71C0F60101895CC84040F23801C2F20F
:105080000001086040F28000C2F200000068FFF7F3
:1050900047FE00208DF80F00FFE79DF80F0004B0D9
:1050A00080BD000040F23800C2F200000068704786
:1050B00080B5FFF7F7FF43F60801C4F20201096863
:1050C000C1F382224DF6FC71C0F60101895CC84033
:1050D00080BD000080B5FFF7E5FF43F60801C4F28C
:1050E0000201096889B24A0B4DF6FC71C0F6010154
:1050F000895CC84080BD000080B586B00020059066
:1051000004900390029043F60800C4F20200006885
:1051100000F00C000146019140B1FFE7019804281E
:105120000AD0FFE7019808280CD04FE042F2004077
:10513000C0F2F40002904FE041F60030C0F2B70038
:10514000029049E043F60400C4F20200016801F055
:105150003F01059100684002002813D5FFE743F6A0
:105160000400C4F202000068C0F3881041F6003168
:10517000C0F2B701A0FB0101059A0023FBF7CAF8B2
:10518000049012E043F60400C4F202000068C0F389
:10519000881042F20041C0F2F401A0FB0101059A1F
:1051A0000023FBF7B7F80490FFE743F60400C4F2CE
:1051B0000200006800F44031022000EBD13003907F
:1051C00004980399B0FBF1F0029005E042F2004030
:1051D000C0F2F4000290FFE7029806B080BD000024
:1051E00080B586B00490049820B9FFE701208DF8BF
:1051F000170050E304980078C007002800F0A5804D
:10520000FFE743F60800C4F20200006800F00C005B
:10521000042813D0FFE743F60800C4F20200006838
:1052200000F00C0008281ED1FFE743F60400C4F28A
:10523000020000684002002815D5FFE743F6000091
:10524000C4F20200006800F400310020B0EB514FBE
:1052500008D0FFE70498406820B9FFE701208DF8E7
:10526000170018E370E0FFE704984068B0F5803F4E
:1052700009D1FFE743F60001C4F20201086840F4D7
:105280008030086020E004984068B0F5A02F0DD170
:10529000FFE743F60001C4F20201086840F48020F1
:1052A0000860086840F4803008600CE043F60001B4
:1052B000C4F20201086820F480300860086820F415
:1052C00080200860FFE7FFE7FFE704984068E8B147
:1052D000FFE7FFF7F5FC0390FFE743F60000C4F299
:1052E0000200006800F400310020B0EB514F0CD1F7
:1052F000FFE7FFF7E5FC0399401A652804D3FFE7B1
:1053000003208DF81700C6E2E7E71CE0FFF7D8FCA2
:105310000390FFE743F60000C4F20200006800F4C7
:1053200000310020B0EB514F0CD0FFE7FFF7C8FC75
:105330000399401A652804D3FFE703208DF817006E
:10534000A9E2E7E7FFE7FFE7FFE7049800788007B7
:10535000002840F19680FFE743F60800C4F20200FF
:10536000006810F00C0F13D0FFE743F60800C4F2FA
:105370000200006800F00C0008282CD1FFE743F67B
:105380000400C4F2020000684002002823D4FFE7B2
:1053900043F60000C4F20200006800F002010020A1
:1053A000B0EB510F09D0FFE70498C068012804D082
:1053B000FFE701208DF817006DE243F60001C4F20B
:1053C0000201086820F0F800049A126940EAC2005D
:1053D0000860FFE754E00498C06870B3FFE700215D
:1053E000C4F2472101200860FFF76AFC0390FFE741
:1053F00043F60000C4F20200006800F00201002041
:10540000B0EB510F0CD1FFE7FFF75AFC0399401A9C
:10541000032804D3FFE703208DF817003BE2E7E7FA
:1054200043F60001C4F20201086820F0F800049A73
:10543000126940EAC200086021E00021C4F247215D
:1054400000200860FFF73CFC0390FFE743F60000F4
:10545000C4F20200006800F002010020B0EB510F1E
:105460000CD0FFE7FFF72CFC0399401A032804D364
:10547000FFE703208DF817000DE2E7E7FFE7FFE7FE
:10548000FFE704980078000700284BD5FFE7049851
:10549000406918B3FFE740F68061C4F2472101205C
:1054A0000860FFF70DFC0390FFE743F67400C4F2B9
:1054B0000200006800F002010020B0EB510F0CD197
:1054C000FFE7FFF7FDFB0399401A032804D3FFE72A
:1054D00003208DF81700DEE1E7E722E040F6806167
:1054E000C4F2472100200860FFF7EAFB0390FFE7C2
:1054F00043F67400C4F20200006800F002010020CC
:10550000B0EB510F0CD0FFE7FFF7DAFB0399401A1D
:10551000032804D3FFE703208DF81700BBE1E7E77A
:10552000FFE7FFE7049800784007002840F1CE80AD
:10553000FFE700208DF8070043F64000C4F20200A8
:105540000068C000002815D4FFE7FFE700200090A6
:1055500043F64000C4F20200016841F0805101604E
:10556000006800F0805000900098FFE701208DF85F
:105570000700FFE747F20000C4F200000068C00522
:10558000002822D4FFE747F20001C4F200010868B6
:1055900040F480700860FFF793FB0390FFE747F249
:1055A0000000C4F200000068C00500280CD4FFE72A
:1055B000FFF786FB0399401A032804D3FFE7032073
:1055C0008DF8170067E1EAE7FFE7FFE704988068D6
:1055D000012809D1FFE743F67001C4F2020108680F
:1055E00040F0010008601FE00498806805280DD194
:1055F000FFE743F67001C4F20201086840F00400BE
:105600000860086840F0010008600CE043F6700193
:10561000C4F20201086820F001000860086820F068
:1056200004000860FFE7FFE7FFE704988068F8B12F
:10563000FFE7FFF745FB0390FFE743F67000C4F276
:105640000200006800F002010020B0EB510F0ED103
:10565000FFE7FFF735FB0399401A41F28931884291
:1056600004D3FFE703208DF8170014E1E5E71EE0FF
:10567000FFF726FB0390FFE743F67000C4F2020039
:10568000006800F002010020B0EB510F0ED0FFE7E0
:10569000FFF716FB0399401A41F28931884204D37F
:1056A000FFE703208DF81700F5E0E5E7FFE79DF839
:1056B0000700012809D1FFE743F64001C4F20201C7
:1056C000086820F080500860FFE7FFE704988069D1
:1056D000002800F0DC80FFE743F60800C4F2020077
:1056E000006800F00C00082800F08580FFE70498AF
:1056F000806902285CD1FFE76021C4F247210020C5
:105700000860FFF7DDFA0390FFE743F60000C4F2FC
:105710000200006800F000710020B0EB516F0CD067
:10572000FFE7FFF7CDFA0399401A032804D3FFE7F8
:1057300003208DF81700AEE0E7E70499C869D1F8B7
:1057400020C04B6A8A6A40EA0C0040EA8310D20308
:105750004FF6FF739A43A2F580321043C96A40EABC
:10576000016043F60401C4F2020108606021C4F242
:10577000472101200860FFF7A3FA0390FFE743F6F3
:105780000000C4F20200006800F000710020B0EBDD
:10579000516F0CD1FFE7FFF793FA0399401A0328E2
:1057A00004D3FFE703208DF8170074E0E7E721E05A
:1057B0006021C4F2472100200860FFF781FA0390BE
:1057C000FFE743F60000C4F20200006800F0007139
:1057D0000020B0EB516F0CD0FFE7FFF771FA03998F
:1057E000401A032804D3FFE703208DF8170052E086
:1057F000E7E7FFE74AE004988069012804D1FFE762
:1058000001208DF8170046E043F60400C4F20200C0
:105810000068029004988069012831D0FFE702985F
:1058200000F480000499C969884229D1FFE70298F1
:1058300000F03F000499096A884221D1FFE70298ED
:1058400047F6C07108400499496AB0EB811F17D12F
:10585000FFE7029800F440300499896AC9034FF6C3
:10586000FF729143A1F58031884209D1FFE7029888
:1058700000F070600499C96AB0EB016F04D0FFE7D3
:1058800001208DF8170006E0FFE7FFE7FFE70020A3
:105890008DF81700FFE79DF8170006B080BD0000E7
:1058A00080B584B00290029820B9FFE701208DF8FE
:1058B0000F0071E00298406A60B9FFE70298406803
:1058C000B0F5827F01D1FFE703E002990020C861B3
:1058D000FFE705E002990020086102994861FFE7AF
:1058E000029900208862029890F8510040B9FFE7C1
:1058F0000299002081F85000029800F051F8FFE76B
:105900000299022081F8510002980168086820F08D
:1059100040000860029A019211685068D2F808C0ED
:10592000D36800F482700CF4044C604403F4006308
:105930001844136903F002031844536903F0010388
:105940001844936903F400731844D36903F03803CF
:105950001844136A03F080031843926A02F4005259
:1059600010430860029A508B00F004001168526ADC
:1059700002F010021044486002980168C86920F4DF
:105980000060C861029900204865029A012182F8EE
:1059900051108DF80F00FFE79DF80F0004B080BD97
:1059A00080B590B00F9000200E900D900C900B9051
:1059B0000A900F98006843F20001C4F20101884286
:1059C00040F0B680FFE7FFE70020099043F644006F
:1059D000C4F20200016841F480510160006800F4E3
:1059E000805009900998FFE7FFE70020089043F6F0
:1059F0003000C4F20200016841F002010160006859
:105A000000F0020008900898FFE7FFE700200790E9
:105A100043F63000C4F20200016841F00101016068
:105A2000006800F0010007900798FFE718200A902F
:105A3000022001900B90012002900C900320039013
:105A40000D90052004900E9040F20040C4F2020038
:105A50000AA90591FEF728FFDDF804C0029B039A0E
:105A6000049805994FF0800ECDF828E0CDF82CC0B1
:105A70000C930D920E900020C4F20200FEF714FF6A
:105A800040F24060C2F20000069046F24041C4F28B
:105A9000020101604FF0C061416000218160C1607E
:105AA0004FF48062026141618161C1614FF4403213
:105AB00002624162FEF79AFD18B1FFE7FDF73AFB7B
:105AC000FFE7FFE70F9840F24061C2F20001C164B6
:105AD0000F988863FFE740F2A060C2F200000090D8
